:04000000FEEF7FF0A0
:1010000000001250800B1B6E12501224216E11AE84
:101010000CEF08F00EEF08F00FEF08F021802150E0
:10102000D8B415EF08F017EF08F02AEF08F02128E0
:10103000D8A41DEF08F01FEF08F027EF08F0000E0E
:101040000F6E000E106E000E116E000E126E118EDD
:1010500032EF08F0000E0F6E000E106E000E116ED3
:10106000000E126E1650800B1B1A16501624206E9E
:1010700015AE3DEF08F03FEF08F040EF08F020809C
:101080002050D8B446EF08F048EF08F05BEF08F0C6
:101090002028D8A44EEF08F050EF08F058EF08F0E1
:1010A000000E136E000E146E000E156E000E166EFE
:1010B000158E63EF08F0000E136E000E146E000E16
:1010C000156E000E166E2050D8B469EF08F06BEF65
:1010D00008F073EF08F02150D8A471EF08F073EF17
:1010E00008F07DEF08F0000E0F6E000E106E000E7F
:1010F000116E000E126E13EF0AF015500F02F3CFAF
:1011000026F0F4CF27F026501C6E1D6A1E6A1F6A57
:101110002750226E236A246A256A14501002F3CFE6
:1011200026F0F4CF27F026501C26000E1D221E228A
:101130001F2227502226000E23222422252213506C
:101140001102F3CF26F0F4CF27F026501C26000E14
:101150001D221E221F2227502226000E2322242277
:1011600025221EC01FF01DC01EF01CC01DF01C6AF1
:1011700013501002F3CF26F0F4CF27F026501C2690
:1011800027501D22000E1E22000E1F2214500F0297
:10119000F3CF26F0F4CF27F026501C2627501D222F
:1011A000000E1E22000E1F221EC01FF01DC01EF0CA
:1011B0001CC01DF01C6A13500F02F3CF26F0F4CFB1
:1011C00027F026501C2627501D22000E1E22000E3E
:1011D0001F2215501002F3CF26F0F4CF27F026502F
:1011E000222627502322000E2422000E25221450EE
:1011F0001102F3CF26F0F4CF27F0265022262750F5
:101200002322000E2422000E252215501102F3CFB6
:1012100026F0F4CF27F02650176E2750186E196A63
:101220001A6A19C01AF018C019F017C018F0176A16
:101230001750222618502322195024221A502522F2
:101240001CC017F01DC018F01EC019F01FC01AF006
:10125000190E30EF09F0D8901A32193218321732BD
:10126000E82E2BEF09F01750222618502322195090
:1012700024221A5025221EC01FF01DC01EF01CC0C3
:101280001DF01C6A205021C017F0186A1726000EA6
:101290001822820E1724266EFF0E1820276E66EF86
:1012A00009F0D89022362336243625361FAE5BEF60
:1012B00009F05DEF09F05EEF09F02280D8901C364E
:1012C0001D361E361F362606D8A0270624AE6BEF25
:1012D00009F06DEF09F051EF09F0206A1FAE73EFCE
:1012E00009F075EF09F099EF09F0FF0E1C14176E65
:1012F000FF0E1D14186EFF0E1E14196E7F0E1F14A4
:101300001A6E1750181019101A10D8B48AEF09F075
:101310008CEF09F090EF09F0010E206E99EF09F0C3
:1013200022A095EF09F097EF09F099EF09F08CEF03
:1013300009F02050D8B49FEF09F0A1EF09F0C5EFF4
:1013400009F0010E2226000E23222422252225A0A8
:10135000ACEF09F0AEEF09F0C5EF09F022C017F0CD
:1013600023C018F024C019F025C01AF01A341A321C
:1013700019321832173217C022F018C023F019C0E2
:1013800024F01AC025F0264A272A27BED0EF09F0FC
:10139000275008E12628D8A0D0EF09F0D2EF09F0B5
:1013A000DCEF09F0000E226E000E236E800E246E1C
:1013B0007F0E256E09EF0AF027BEE9EF09F02750EE
:1013C00006E12604D8B0E7EF09F0E9EF09F0F4EF01
:1013D00009F0000E226E000E236E000E246E000E29
:1013E000256E1B6A09EF0AF026C021F0FF0E2216B7
:1013F000FF0E23167F0E2416000E251621A003EFE4
:101400000AF005EF0AF006EF0AF0248ED89021309A
:10141000256E1B50251222C00FF023C010F024C0EF
:1014200011F025C012F012002B50800B386E2B509B
:101430002B243F6E2AAE1FEF0AF021EF0AF022EFB5
:101440000AF03F803F50D8B428EF0AF02AEF0AF0A4
:101450003EEF0AF03F28D8A430EF0AF032EF0AF04E
:101460003AEF0AF0000E286E000E296E000E2A6E6A
:10147000000E2B6E2A8E2B6A46EF0AF0000E286EA5
:10148000000E296E000E2A6E000E2B6E2F50800B60
:10149000381A2F502F24406E2EAE51EF0AF053EF22
:1014A0000AF054EF0AF040804050D8B45AEF0AF0E6
:1014B0005CEF0AF070EF0AF04028D8A462EF0AF05F
:1014C00064EF0AF06CEF0AF0000E2C6E000E2D6E29
:1014D000000E2E6E000E2F6E2E8E2F6A78EF0AF001
:1014E000000E2C6E000E2D6E000E2E6E000E2F6E56
:1014F0002C502D102E102F10D8A481EF0AF083EF5E
:101500000AF09BEF0AF0000E286E000E296E000E06
:101510002A6E000E2B6E800E2A127F0E2B12385070
:101520002B1228C028F029C029F02AC02AF02BC08D
:101530002BF0DAEF0BF03F50D8A4A1EF0AF0A3EFA5
:101540000AF0ADEF0AF0000E286E000E296E000EB4
:101550002A6E000E2B6EDAEF0BF040503FC030F0D9
:10156000316A305E000E315A7F0E3024396E000E23
:1015700031203A6E28C034F029C035F02AC036F048
:101580002BC037F0000E286E000E296E000E2A6E5A
:10159000000E2B6E000E3B6E000E3C6E000E3D6E7C
:1015A000000E3E6E406A0DEF0BF04050D8B4DBEFFA
:1015B0000AF0DDEF0AF0F4EF0AF0D8903436353651
:1015C00036363736D890283629362A362B363EAE70
:1015D000ECEF0AF0EEEF0AF0EFEF0AF02880D89077
:1015E0003B363C363D363E362C50345C2D5035581B
:1015F0002E5036582F503758D8A001EF0BF003EF7C
:101600000BF00CEF0BF03E8C2C50345E2D50355A05
:101610002E50365A2F50375A402A190E406413EF75
:101620000BF015EF0BF0D5EF0AF0345035103610F3
:101630003710D8B41EEF0BF020EF0BF038EF0BF0A3
:101640003B8038EF0BF0D890283629362A362B36D7
:101650003EAE2DEF0BF02FEF0BF030EF0BF02880AC
:10166000D8903B363C363D363E363906D8A03A0651
:101670002AAE3DEF0BF03FEF0BF023EF0BF0406A8B
:101680003EAE45EF0BF047EF0BF06BEF0BF0FF0EAC
:101690003B14306EFF0E3C14316EFF0E3D14326E63
:1016A0007F0E3E14336E3050311032103310D8B4E8
:1016B0005CEF0BF05EEF0BF062EF0BF0010E406E93
:1016C0006BEF0BF028A067EF0BF069EF0BF06BEFFF
:1016D0000BF05EEF0BF04050D8B471EF0BF073EFEE
:1016E0000BF097EF0BF0010E2826000E29222A227C
:1016F0002B222BA07EEF0BF080EF0BF097EF0BF07F
:1017000028C030F029C031F02AC032F02BC033F0AD
:101710003334333232323132303230C028F031C0DB
:1017200029F032C02AF033C02BF0394A3A2A3ABEA7
:10173000A2EF0BF03A5008E13928D8A0A2EF0BF045
:10174000A4EF0BF0AFEF0BF0000E3A6E3968000E0D
:10175000286E000E296E000E2A6E000E2B6E3ABE09
:10176000BCEF0BF03A5006E13904D8B0BAEF0BF0F9
:10177000BCEF0BF0C8EF0BF03A6A000E396E000EAA
:10178000286E000E296E000E2A6E000E2B6E386A2F
:1017900039C03FF03FA0CFEF0BF0D1EF0BF0D4EF0B
:1017A0000BF02A8ED5EF0BF02A9ED8903F302B6E8F
:1017B0008FEF0AF01200096E0950D8B4E2EF0BF077
:1017C000E4EF0BF006EF0CF004BEEBEF0BF0E9EFEB
:1017D0000BF006EF0CF001C005F002C006F003C0EC
:1017E00007F004C008F0051E061E071E081E052A85
:1017F000000E06220722082205C00BF006C00CF0DE
:1018000007C00DF008C00EF00EEF0CF001C00BF099
:1018100002C00CF003C00DF004C00EF00150021025
:1018200003100410D8A417EF0CF019EF0CF023EFFD
:101830000CF0000E016E000E026E000E036E000E24
:10184000046EB4EF0CF0960E0A6E2DEF0CF00A2A1F
:10185000D8900E320D320C320B32000E0B14056E86
:10186000000E0C14066E000E0D14076EFE0E0E1404
:10187000086E0550061007100810D8A442EF0CF0AF
:1018800044EF0CF027EF0CF052EF0CF00A2A010E97
:101890000B26000E0C220D220E22D8900E320D3295
:1018A0000C320B32000E0B14056E000E0C14066E7B
:1018B000000E0D14076EFF0E0E14086E0550061074
:1018C00007100810D8A467EF0CF069EF0CF046EF92
:1018D0000CF071EF0CF00A06D8900B360C360D3672
:1018E0000E360DBE76EF0CF078EF0CF080EF0CF0BA
:1018F000020E0A607EEF0CF080EF0CF06BEF0CF044
:101900000AB085EF0CF087EF0CF088EF0CF00D9E1D
:10191000D8900A320AC005F0066A076A086A05C04C
:1019200008F0076A066A056A05500B1206500C1289
:1019300007500D1208500E120950D8B4A2EF0CF047
:10194000A4EF0CF0ACEF0CF004BEABEF0CF0A9EF81
:101950000CF0ACEF0CF00E8E0BC001F00CC002F0DE
:101960000DC003F00EC004F01200000E4914516EB9
:10197000000E4A14526E800E4B14536E7F0E4C14A0
:10198000546E5150521053105410D8A4CAEF0CF09A
:10199000CCEF0CF0D4EF0CF0000E496E000E4A6E46
:1019A000000E4B6E000E4C6E000E4D14516E000E6C
:1019B0004E14526E800E4F14536E7F0E5014546EA0
:1019C0005150521053105410D8A4E9EF0CF0EBEF23
:1019D0000CF0F3EF0CF0000E4D6E000E4E6E000E8C
:1019E0004F6E000E506E4CAEF8EF0CF0FAEF0CF0AC
:1019F00003EF0DF0496C4A1ED8B04A2A4B1ED8B0EE
:101A00004B2A800E4C5650AE08EF0DF00AEF0DF049
:101A100013EF0DF04D6C4E1ED8B04E2A4F1ED8B0AD
:101A20004F2A800E5056000E491A000E4A1A000E18
:101A30004B1A800E4C1A000E4D1A000E4E1A000E54
:101A40004F1A800E501A4D50495C4E504A584F5014
:101A50004B5850504C58D8B030EF0DF032EF0DF0DD
:101A600035EF0DF0D89036EF0DF0D8801200000E53
:101A70002C6EC00E2D6E7F0E2E6E440E2F6E000E3D
:101A8000136E000E146EA00E156E400E166E41C041
:101A900001F042C002F0036A046A000EDBEC0BF0B6
:101AA00001C00FF002C010F003C011F004C012F02A
:101AB00001EC08F00FC028F010C029F011C02AF086
:101AC00012C02BF014EC0AF028C045F029C046F0F3
:101AD0002AC047F02BC048F045C00FF046C010F0B8
:101AE00047C011F048C012F0000E136E000E146EC5
:101AF000C80E156E420E166E01EC08F00FC041F0D4
:101B000010C042F011C043F012C044F01200B9EC12
:101B10000DF0E4EC0DF0DDEC0DF0000E496E000E62
:101B20004A6E700E4B6E420E4C6ECCEC0DF001C046
:101B300041F002C042F037EC0DF041C04DF042C020
:101B40004EF043C04FF044C050F0B5EC0CF0D8B0AC
:101B5000ACEF0DF0AEEF0DF0B1EF0DF0838AB2EF08
:101B60000DF0839A00D000D000008DEF0DF0FEEF55
:101B70007FF0830EC216F30EC116FC0EC116C08E86
:101B8000C050C70B3009C06EC050F80B0409C06EBE
:101B900092800F0138811200C282C2B2D2EF0DF0E2
:101BA000D4EF0DF0CDEF0DF0C3CF03F0C4CF04F0B0
:101BB00003C001F004C002F01200959A0F013B9B94
:0C1BC0001200000187EF0DF0C28012003F
:04FFFC00E1EF0DF034
:00000001FF
