:0400000042EF00F0DB
:100008000182D9CF0AF0DACF0BF0F3CF0CF0F4CF9E
:100018000DF0F2A412EF00F014EF00F038EF00F04A
:10002800F294D76A000ED66EFC6A05001A50020DCB
:10003800F350140FD96EDA6ADECF08F0DDCF09F07D
:1000480008C0FDFF09C0FEFFFF6A010E1A24026EF8
:10005800000E1B20036E056A030E046E01EC08F007
:1000680002C01AF003C01BF00DC0F4FF0CC0F3FF70
:100078000BC0DAFF0AC0D9FF01921100AEEF08F0F9
:101000000000076A03BE09EF08F007EF08F00FEFD2
:1010100008F0026C031ED8B0032A010E076E05BE4D
:1010200016EF08F014EF08F01AEF08F0046C051E34
:10103000D8B0052A04500510D8B421EF08F023EFEA
:1010400008F047EF08F0010E066E2BEF08F0D8907D
:1010500004360536062A05AE30EF08F032EF08F008
:1010600027EF08F00450025C05500358D8A03BEF6E
:1010700008F03DEF08F041EF08F00450025E055023
:10108000035AD89005320432062E32EF08F007508A
:10109000D8B44DEF08F04FEF08F053EF08F0026CB2
:1010A000031ED8B0032A02C002F003C003F01200EE
:1010B000D80E146E100E156E200E166E110E176ED1
:1010C000FC0E186E100E196EB9EC08F0A1EC08F0C9
:1010D00068EF08F042EF00F081A071EF08F075EFC3
:1010E00008F0116A112A76EF08F0116A8A50111877
:1010F000FE0B11188A6E6CEF08F0120081A483EFCA
:1011000008F087EF08F0136A132A88EF08F0136AD3
:10111000134613468A501318FB0B13188A6E1200DD
:1011200081A295EF08F099EF08F0126A122A9AEF5F
:1011300008F0126A12468A501218FD0B12188A6EB5
:101140001200F28AF294D58CD59AD596070ED51254
:10115000D58ED76A000ED66EF28E120000EE14F015
:10116000080EEE6AE806FDE101900192000158EFD9
:1011700008F09390939293940F0139913993399594
:0211800012005B
:00000001FF
