:040000002BEF00F0F2
:100008000182D9CF0BF0DACF0CF0F3CF0DF0F4CF9B
:100018000EF0F2A412EF00F014EF00F021EF00F060
:10002800F294D76A000ED66EFC6A050058EC08F008
:1000380008C0FDFF09C0FEFFFF6A0EC0F4FF0DC037
:10004800F3FF0CC0DAFF0BC0D9FF019211001EEFBD
:0200580009F0AD
:101000000000076A03BE09EF08F007EF08F00FEFD2
:1010100008F0026C031ED8B0032A010E076E05BE4D
:1010200016EF08F014EF08F01AEF08F0046C051E34
:10103000D8B0052A04500510D8B421EF08F023EFEA
:1010400008F047EF08F0010E066E2BEF08F0D8907D
:1010500004360536062A05AE30EF08F032EF08F008
:1010600027EF08F00450025C05500358D8A03BEF6E
:1010700008F03DEF08F041EF08F00450025E055023
:10108000035AD89005320432062E32EF08F007508A
:10109000D8B44DEF08F04FEF08F053EF08F0026CB2
:1010A000031ED8B0032A02C002F003C003F01200EE
:1010B0002750050DF3501C0FD96EDA6ADE04D8A450
:1010C00064EF08F066EF08F07FEF08F0010E2724C8
:1010D000026E036A000E0322056A030E046E01EC21
:1010E00008F00250276E2750050DF350190FD96EE6
:1010F000DA6ADECF08F0DDCF09F09EEF08F0010ECE
:101100002724026E036A000E0322056A030E046E92
:1011100001EC08F00250276E2750050DF3501C0F0C
:10112000D96EDA6ADE04D8A498EF08F09AEF08F0D6
:1011300058EF08F0000E086E000E096E12002850DD
:10114000050DF350180FD96EDA6A17C0DFFF28506B
:10115000050DF350190FD96EDA6A15C0DEFF16C0FF
:10116000DDFF2850050DF3501B0FD96EDA6ADF6AD8
:101170002850050DF3501C0FD96EDA6A010EDF6E90
:10118000282A120038EC09F0160E156E120E166E93
:10119000010E176E9FEC08F0EE0E156E110E166E16
:1011A000020E176E9FEC08F0C40E156E110E166E2F
:1011B000030E176E9FEC08F02BEC09F0DEEF08F041
:1011C0002BEF00F083B4E7EF08F0EAEF08F0010E30
:1011D000EBEF08F0000EFF0A146E144614468C5014
:1011E0001418FB0B14188C6EE2EF08F0120083B297
:1011F000FCEF08F0FFEF08F0010E00EF09F0000E21
:10120000FF0A136E13468C501318FD0B13188C6EC7
:10121000F7EF08F0120083B010EF09F013EF09F0B8
:10122000010E14EF09F0000EFF0A126E8C50121816
:10123000FE0B12188C6E0BEF09F0120000EE18F086
:10124000110EEE6AE806FDE101900192000EF86EC3
:101250000001C2EF08F0F28AF294D58CD59AD596A7
:10126000070ED512D58ED76A000ED66EF28E1200FA
:101270009590959295940F013B913B933B9512006D
:00000001FF
